{
  "contractName": "DistributorRole",
  "abi": [
    {
      "inputs": [],
      "stateMutability": "nonpayable",
      "type": "constructor"
    },
    {
      "inputs": [
        {
          "internalType": "address",
          "name": "account",
          "type": "address"
        }
      ],
      "name": "isDistributor",
      "outputs": [
        {
          "internalType": "bool",
          "name": "",
          "type": "bool"
        }
      ],
      "stateMutability": "view",
      "type": "function"
    },
    {
      "inputs": [
        {
          "internalType": "address",
          "name": "account",
          "type": "address"
        }
      ],
      "name": "addDistributor",
      "outputs": [],
      "stateMutability": "nonpayable",
      "type": "function"
    },
    {
      "inputs": [],
      "name": "renounceDistributor",
      "outputs": [],
      "stateMutability": "nonpayable",
      "type": "function"
    }
  ],
  "bytecode": "0x608060405234801561001057600080fd5b506101a4806100206000396000f3fe608060405234801561001057600080fd5b50600436106100415760003560e01c8063644241db146100465780637250e224146100505780638f0c86fa1461006c575b600080fd5b61004e61009c565b005b61006a600480360381019061006591906100bd565b61009e565b005b610086600480360381019061008191906100bd565b6100a1565b60405161009391906100f9565b60405180910390f35b565b50565b6000919050565b6000813590506100b781610157565b92915050565b6000602082840312156100d3576100d2610152565b5b60006100e1848285016100a8565b91505092915050565b6100f381610126565b82525050565b600060208201905061010e60008301846100ea565b92915050565b600061011f82610132565b9050919050565b60008115159050919050565b600073ffffffffffffffffffffffffffffffffffffffff82169050919050565b600080fd5b61016081610114565b811461016b57600080fd5b5056fea2646970667358221220403627acd7ee04a7da5822890d05f26d0aaecbc460baadd1d86d58181903509f64736f6c63430008050033",
  "immutableReferences": {},
  "source": "// SPDX-License-Identifier: MIT\npragma solidity ^0.8.0;\n\n// Import the library 'Roles'\nimport \"./Roles.sol\";\n\n// Define a contract 'DistributorRole' to manage this role - add, remove, check\ncontract DistributorRole {\n    // Define 2 events, one for Adding, and other for Removing\n\n    // Define a struct 'distributors' by inheriting from 'Roles' library, struct Role\n\n    // In the constructor make the address that deploys this contract the 1st distributor\n    constructor() {}\n\n    // Define a modifier that checks to see if msg.sender has the appropriate role\n    modifier onlyDistributor() {\n        _;\n    }\n\n    // Define a function 'isDistributor' to check this role\n    function isDistributor(address account) public view returns (bool) {}\n\n    // Define a function 'addDistributor' that adds this role\n    function addDistributor(address account) public onlyDistributor {}\n\n    // Define a function 'renounceDistributor' to renounce this role\n    function renounceDistributor() public {}\n\n    // Define an internal function '_addDistributor' to add this role, called by 'addDistributor'\n    function _addDistributor(address account) internal {}\n\n    // Define an internal function '_removeDistributor' to remove this role, called by 'removeDistributor'\n    function _removeDistributor(address account) internal {}\n}\n",
  "sourcePath": "C:\\blockchain\\eth\\ch4project\\contracts\\coffeeaccesscontrol\\DistributorRole.sol",
  "compiler": {
    "name": "solc",
    "version": "0.8.5+commit.a4f2e591.Emscripten.clang"
  },
  "schemaVersion": "3.4.1",
  "updatedAt": "2021-06-13T01:23:39.893Z",
  "devdoc": {
    "kind": "dev",
    "methods": {},
    "version": 1
  },
  "userdoc": {
    "kind": "user",
    "methods": {},
    "version": 1
  }
}