{
  "contractName": "RetailerRole",
  "abi": [
    {
      "inputs": [],
      "stateMutability": "nonpayable",
      "type": "constructor"
    },
    {
      "inputs": [
        {
          "internalType": "address",
          "name": "account",
          "type": "address"
        }
      ],
      "name": "isRetailer",
      "outputs": [
        {
          "internalType": "bool",
          "name": "",
          "type": "bool"
        }
      ],
      "stateMutability": "view",
      "type": "function"
    },
    {
      "inputs": [
        {
          "internalType": "address",
          "name": "account",
          "type": "address"
        }
      ],
      "name": "addRetailer",
      "outputs": [],
      "stateMutability": "nonpayable",
      "type": "function"
    },
    {
      "inputs": [],
      "name": "renounceRetailer",
      "outputs": [],
      "stateMutability": "nonpayable",
      "type": "function"
    }
  ],
  "bytecode": "0x608060405234801561001057600080fd5b506101a4806100206000396000f3fe608060405234801561001057600080fd5b50600436106100415760003560e01c80635da09b88146100465780638ec4f50514610076578063db0e6a2f14610092575b600080fd5b610060600480360381019061005b91906100bd565b61009c565b60405161006d91906100f9565b60405180910390f35b610090600480360381019061008b91906100bd565b6100a3565b005b61009a6100a6565b005b6000919050565b50565b565b6000813590506100b781610157565b92915050565b6000602082840312156100d3576100d2610152565b5b60006100e1848285016100a8565b91505092915050565b6100f381610126565b82525050565b600060208201905061010e60008301846100ea565b92915050565b600061011f82610132565b9050919050565b60008115159050919050565b600073ffffffffffffffffffffffffffffffffffffffff82169050919050565b600080fd5b61016081610114565b811461016b57600080fd5b5056fea2646970667358221220930dc33e90661478fe83f180b5d38ae2986816563faf0b60c42bcf3604b4c99f64736f6c63430008050033",
  "immutableReferences": {},
  "source": "// SPDX-License-Identifier: MIT\npragma solidity ^0.8.0;\n\n// Import the library 'Roles'\nimport \"./Roles.sol\";\n\n// Define a contract 'RetailerRole' to manage this role - add, remove, check\ncontract RetailerRole {\n    // Define 2 events, one for Adding, and other for Removing\n\n    // Define a struct 'retailers' by inheriting from 'Roles' library, struct Role\n\n    // In the constructor make the address that deploys this contract the 1st retailer\n    constructor() {}\n\n    // Define a modifier that checks to see if msg.sender has the appropriate role\n    modifier onlyRetailer() {\n        _;\n    }\n\n    // Define a function 'isRetailer' to check this role\n    function isRetailer(address account) public view returns (bool) {}\n\n    // Define a function 'addRetailer' that adds this role\n    function addRetailer(address account) public onlyRetailer {}\n\n    // Define a function 'renounceRetailer' to renounce this role\n    function renounceRetailer() public {}\n\n    // Define an internal function '_addRetailer' to add this role, called by 'addRetailer'\n    function _addRetailer(address account) internal {}\n\n    // Define an internal function '_removeRetailer' to remove this role, called by 'removeRetailer'\n    function _removeRetailer(address account) internal {}\n}\n",
  "sourcePath": "C:/blockchain/eth/ch4project/contracts/coffeeaccesscontrol/RetailerRole.sol",
  "compiler": {
    "name": "solc",
    "version": "0.8.5+commit.a4f2e591.Emscripten.clang"
  },
  "schemaVersion": "3.4.1",
  "updatedAt": "2021-06-13T15:02:56.510Z",
  "devdoc": {
    "kind": "dev",
    "methods": {},
    "version": 1
  },
  "userdoc": {
    "kind": "user",
    "methods": {},
    "version": 1
  }
}