{
  "contractName": "Retailer2Role",
  "abi": [
    {
      "inputs": [],
      "stateMutability": "nonpayable",
      "type": "constructor"
    },
    {
      "inputs": [
        {
          "internalType": "address",
          "name": "account",
          "type": "address"
        }
      ],
      "name": "isRetailer2",
      "outputs": [
        {
          "internalType": "bool",
          "name": "",
          "type": "bool"
        }
      ],
      "stateMutability": "view",
      "type": "function"
    },
    {
      "inputs": [
        {
          "internalType": "address",
          "name": "account",
          "type": "address"
        }
      ],
      "name": "addRetailer2",
      "outputs": [],
      "stateMutability": "nonpayable",
      "type": "function"
    },
    {
      "inputs": [],
      "name": "renounceRetailer2",
      "outputs": [],
      "stateMutability": "nonpayable",
      "type": "function"
    }
  ],
  "bytecode": "0x608060405234801561001057600080fd5b506100203361002560201b60201c565b610184565b61003d81600061004060201b6100e21790919060201c565b50565b600073ffffffffffffffffffffffffffffffffffffffff168173ffffffffffffffffffffffffffffffffffffffff16141561007a57600080fd5b61008a82826100f260201b60201c565b1561009457600080fd5b60018260000160008373ffffffffffffffffffffffffffffffffffffffff1673ffffffffffffffffffffffffffffffffffffffff16815260200190815260200160002060006101000a81548160ff0219169083151502179055505050565b60008073ffffffffffffffffffffffffffffffffffffffff168273ffffffffffffffffffffffffffffffffffffffff16141561012d57600080fd5b8260000160008373ffffffffffffffffffffffffffffffffffffffff1673ffffffffffffffffffffffffffffffffffffffff16815260200190815260200160002060009054906101000a900460ff16905092915050565b6103f5806101936000396000f3fe608060405234801561001057600080fd5b50600436106100415760003560e01c806332aff76714610046578063c0809d5814610050578063c14035f41461006c575b600080fd5b61004e61009c565b005b61006a6004803603810190610065919061030e565b6100a7565b005b6100866004803603810190610081919061030e565b6100c5565b604051610093919061034a565b60405180910390f35b6100a53361018e565b565b6100b0336100c5565b6100b957600080fd5b6100c2816101a5565b50565b60006100db8260006101bc90919063ffffffff16565b9050919050565b600073ffffffffffffffffffffffffffffffffffffffff168173ffffffffffffffffffffffffffffffffffffffff16141561011c57600080fd5b61012682826101bc565b1561013057600080fd5b60018260000160008373ffffffffffffffffffffffffffffffffffffffff1673ffffffffffffffffffffffffffffffffffffffff16815260200190815260200160002060006101000a81548160ff0219169083151502179055505050565b6101a281600061024e90919063ffffffff16565b50565b6101b98160006100e290919063ffffffff16565b50565b60008073ffffffffffffffffffffffffffffffffffffffff168273ffffffffffffffffffffffffffffffffffffffff1614156101f757600080fd5b8260000160008373ffffffffffffffffffffffffffffffffffffffff1673ffffffffffffffffffffffffffffffffffffffff16815260200190815260200160002060009054906101000a900460ff16905092915050565b600073ffffffffffffffffffffffffffffffffffffffff168173ffffffffffffffffffffffffffffffffffffffff16141561028857600080fd5b61029282826101bc565b61029b57600080fd5b60008260000160008373ffffffffffffffffffffffffffffffffffffffff1673ffffffffffffffffffffffffffffffffffffffff16815260200190815260200160002060006101000a81548160ff0219169083151502179055505050565b600081359050610308816103a8565b92915050565b600060208284031215610324576103236103a3565b5b6000610332848285016102f9565b91505092915050565b61034481610377565b82525050565b600060208201905061035f600083018461033b565b92915050565b600061037082610383565b9050919050565b60008115159050919050565b600073ffffffffffffffffffffffffffffffffffffffff82169050919050565b600080fd5b6103b181610365565b81146103bc57600080fd5b5056fea2646970667358221220edba0d4ef2b6793ec6f0e509a7f78728d6347f5322dd9f222fbefbbacff9d86764736f6c63430008060033",
  "immutableReferences": {},
  "source": "// SPDX-License-Identifier: MIT\npragma solidity ^0.8.0;\n\n// Import the library 'Roles'\nimport \"./Roles.sol\";\n\n// Define a contract 'Retailer2Role' to manage this role - add, remove, check\ncontract Retailer2Role {\n    using Roles for Roles.Role;\n    // Define 2 events, one for Adding, and other for Removing\n    \n    // Define a struct 'Retailer2s' by inheriting from 'Roles' library, struct Role\n     Roles.Role private retailer2s;\n\n    // In the constructor make the address that deploys this contract the 1st Retailer2\n    constructor() {\n        _addRetailer2(msg.sender);\n    }\n\n    // Define a modifier that checks to see if msg.sender has the appropriate role\n    modifier onlyRetailer2() {\n        require(isRetailer2(msg.sender));\n        _;\n    }\n\n    // Define a function 'isRetailer2' to check this role\n    function isRetailer2(address account) public view returns (bool) {\n        return retailer2s.has(account);\n    }\n\n    // Define a function 'addRetailer2' that adds this role\n    function addRetailer2(address account) public onlyRetailer2 {\n        _addRetailer2(account);\n    }\n\n    // Define a function 'renounceRetailer2' to renounce this role\n    function renounceRetailer2() public {\n        _removeRetailer2(msg.sender);\n    }\n\n    // Define an internal function '_addRetailer2' to add this role, called by 'addRetailer2'\n    function _addRetailer2(address account) internal {\n        retailer2s.add(account);\n    }\n\n    // Define an internal function '_removeRetailer2' to remove this role, called by 'removeRetailer2'\n    function _removeRetailer2(address account) internal {\n        retailer2s.remove(account); \n    }\n}\n",
  "sourcePath": "C:/Blockchain/eth/ch4project/contracts/coffeeaccesscontrol/Retailer2Role.sol",
  "compiler": {
    "name": "solc",
    "version": "0.8.6+commit.11564f7e.Emscripten.clang"
  },
  "schemaVersion": "3.4.1",
  "updatedAt": "2021-07-03T05:24:55.014Z",
  "devdoc": {
    "kind": "dev",
    "methods": {},
    "version": 1
  },
  "userdoc": {
    "kind": "user",
    "methods": {},
    "version": 1
  }
}